:1000000045C000004BC0000049C0000047C00000D0
:1000100045C0000043C0000041C000003FC00000D8
:100020003DC000003BC0000039C0000037C00000E8
:1000300035C0000033C0000031C000002FC00000F8
:100040002DC000002BC0000029C0000027C0000008
:1000500025C0000023C0000021C000001FC0000018
:100060001DC000001BC0000019C0000017C0000028
:1000700015C0000013C0000011C000000FC0000038
:100080000DC000000BC0000009C0000011241FBEFD
:10009000CFEFD0E1DEBFCDBF1AD025C0B1CFCF9317
:1000A000DF9300D0CDB7DEB78FEF90E09A838983DE
:1000B00005C089819A8101979A83898389819A8170
:1000C000892BB9F70F900F90DF91CF9108958FEFA3
:1000D00087BB8EEF88BBCFEFC8BBE1DF8DEF88BB5E
:0A00E000C8BBDDDFF6CFF894FFCFB8
:00000001FF
